{
  "_format": "hh-sol-artifact-1",
  "contractName": "Spread",
  "sourceName": "contracts/Spread.sol",
  "abi": [
    {
      "inputs": [],
      "name": "_token",
      "outputs": [
        {
          "internalType": "contract ERC20",
          "name": "",
          "type": "address"
        }
      ],
      "stateMutability": "view",
      "type": "function"
    },
    {
      "inputs": [
        {
          "internalType": "address[]",
          "name": "addressesTo",
          "type": "address[]"
        },
        {
          "internalType": "uint256[]",
          "name": "amounts",
          "type": "uint256[]"
        }
      ],
      "name": "batchTransfer",
      "outputs": [
        {
          "internalType": "uint256",
          "name": "",
          "type": "uint256"
        },
        {
          "internalType": "bool",
          "name": "",
          "type": "bool"
        }
      ],
      "stateMutability": "nonpayable",
      "type": "function"
    },
    {
      "inputs": [],
      "name": "getContractAddress",
      "outputs": [
        {
          "internalType": "address",
          "name": "",
          "type": "address"
        }
      ],
      "stateMutability": "view",
      "type": "function"
    },
    {
      "inputs": [
        {
          "internalType": "contract ERC20",
          "name": "userToken",
          "type": "address"
        }
      ],
      "name": "getToken",
      "outputs": [
        {
          "internalType": "contract ERC20",
          "name": "",
          "type": "address"
        }
      ],
      "stateMutability": "nonpayable",
      "type": "function"
    },
    {
      "inputs": [],
      "name": "getTokenName",
      "outputs": [
        {
          "internalType": "string",
          "name": "",
          "type": "string"
        }
      ],
      "stateMutability": "view",
      "type": "function"
    },
    {
      "inputs": [],
      "name": "getTokenSymbol",
      "outputs": [
        {
          "internalType": "string",
          "name": "",
          "type": "string"
        }
      ],
      "stateMutability": "view",
      "type": "function"
    },
    {
      "inputs": [],
      "name": "getbalance",
      "outputs": [
        {
          "internalType": "uint256",
          "name": "",
          "type": "uint256"
        }
      ],
      "stateMutability": "view",
      "type": "function"
    }
  ],
  "bytecode": "0x608060405234801561001057600080fd5b50611259806100206000396000f3fe608060405234801561001057600080fd5b506004361061007d5760003560e01c8063862b092b1161005b578063862b092b146100ee57806388d695b21461010c578063ecd0c0c31461013d578063f1850af81461015b5761007d565b806332a2c5d0146100825780634d9b3d5d146100a057806359770438146100be575b600080fd5b61008a610179565b6040516100979190610ca5565b60405180910390f35b6100a8610181565b6040516100b59190610dd4565b60405180910390f35b6100d860048036038101906100d39190610aee565b610232565b6040516100e59190610cf7565b60405180910390f35b6100f661029c565b6040516101039190610d12565b60405180910390f35b61012660048036038101906101219190610a50565b610346565b604051610134929190610def565b60405180910390f35b610145610809565b6040516101529190610cf7565b60405180910390f35b61016361082d565b6040516101709190610d12565b60405180910390f35b600030905090565b60008060009054906101000a900473ffffffffffffffffffffffffffffffffffffffff1673ffffffffffffffffffffffffffffffffffffffff166370a08231336040518263ffffffff1660e01b81526004016101dd9190610ca5565b60206040518083038186803b1580156101f557600080fd5b505afa158015610209573d6000803e3d6000fd5b505050506040513d601f19601f8201168201806040525081019061022d9190610b58565b905090565b6000816000806101000a81548173ffffffffffffffffffffffffffffffffffffffff021916908373ffffffffffffffffffffffffffffffffffffffff16021790555060008054906101000a900473ffffffffffffffffffffffffffffffffffffffff169050919050565b606060008054906101000a900473ffffffffffffffffffffffffffffffffffffffff1673ffffffffffffffffffffffffffffffffffffffff166306fdde036040518163ffffffff1660e01b815260040160006040518083038186803b15801561030457600080fd5b505afa158015610318573d6000803e3d6000fd5b505050506040513d6000823e3d601f19601f820116820180604052508101906103419190610b17565b905090565b600080838390508686905014610391576040517f08c379a000000000000000000000000000000000000000000000000000000000815260040161038890610db4565b60405180910390fd5b6000805b878790508110156107f7578585828181106103d9577f4e487b7100000000000000000000000000000000000000000000000000000000600052603260045260246000fd5b9050602002013560008054906101000a900473ffffffffffffffffffffffffffffffffffffffff1673ffffffffffffffffffffffffffffffffffffffff166370a08231336040518263ffffffff1660e01b81526004016104399190610ca5565b60206040518083038186803b15801561045157600080fd5b505afa158015610465573d6000803e3d6000fd5b505050506040513d601f19601f820116820180604052508101906104899190610b58565b10156104ca576040517f08c379a00000000000000000000000000000000000000000000000000000000081526004016104c190610d54565b60405180910390fd5b600073ffffffffffffffffffffffffffffffffffffffff1688888381811061051b577f4e487b7100000000000000000000000000000000000000000000000000000000600052603260045260246000fd5b90506020020160208101906105309190610a27565b73ffffffffffffffffffffffffffffffffffffffff161415610587576040517f08c379a000000000000000000000000000000000000000000000000000000000815260040161057e90610d94565b60405180910390fd5b60008686838181106105c2577f4e487b7100000000000000000000000000000000000000000000000000000000600052603260045260246000fd5b90506020020135141561060a576040517f08c379a000000000000000000000000000000000000000000000000000000000815260040161060190610d74565b60405180910390fd5b60008054906101000a900473ffffffffffffffffffffffffffffffffffffffff1673ffffffffffffffffffffffffffffffffffffffff166323b872dd338a8a85818110610680577f4e487b7100000000000000000000000000000000000000000000000000000000600052603260045260246000fd5b90506020020160208101906106959190610a27565b670de0b6b3a76400008a8a878181106106d7577f4e487b7100000000000000000000000000000000000000000000000000000000600052603260045260246000fd5b905060200201356106e89190610ee0565b6040518463ffffffff1660e01b815260040161070693929190610cc0565b602060405180830381600087803b15801561072057600080fd5b505af1158015610734573d6000803e3d6000fd5b505050506040513d601f19601f820116820180604052508101906107589190610ac5565b610797576040517f08c379a000000000000000000000000000000000000000000000000000000000815260040161078e90610d34565b60405180910390fd5b8585828181106107d0577f4e487b7100000000000000000000000000000000000000000000000000000000600052603260045260246000fd5b90506020020135826107e29190610e8a565b915080806107ef9061101c565b915050610395565b50806001925092505094509492505050565b60008054906101000a900473ffffffffffffffffffffffffffffffffffffffff1681565b606060008054906101000a900473ffffffffffffffffffffffffffffffffffffffff1673ffffffffffffffffffffffffffffffffffffffff166395d89b416040518163ffffffff1660e01b815260040160006040518083038186803b15801561089557600080fd5b505afa1580156108a9573d6000803e3d6000fd5b505050506040513d6000823e3d601f19601f820116820180604052508101906108d29190610b17565b905090565b60006108ea6108e584610e3d565b610e18565b90508281526020810184848401111561090257600080fd5b61090d848285610fb8565b509392505050565b600081359050610924816111c7565b92915050565b60008083601f84011261093c57600080fd5b8235905067ffffffffffffffff81111561095557600080fd5b60208301915083602082028301111561096d57600080fd5b9250929050565b60008083601f84011261098657600080fd5b8235905067ffffffffffffffff81111561099f57600080fd5b6020830191508360208202830111156109b757600080fd5b9250929050565b6000815190506109cd816111de565b92915050565b6000813590506109e2816111f5565b92915050565b600082601f8301126109f957600080fd5b8151610a098482602086016108d7565b91505092915050565b600081519050610a218161120c565b92915050565b600060208284031215610a3957600080fd5b6000610a4784828501610915565b91505092915050565b60008060008060408587031215610a6657600080fd5b600085013567ffffffffffffffff811115610a8057600080fd5b610a8c8782880161092a565b9450945050602085013567ffffffffffffffff811115610aab57600080fd5b610ab787828801610974565b925092505092959194509250565b600060208284031215610ad757600080fd5b6000610ae5848285016109be565b91505092915050565b600060208284031215610b0057600080fd5b6000610b0e848285016109d3565b91505092915050565b600060208284031215610b2957600080fd5b600082015167ffffffffffffffff811115610b4357600080fd5b610b4f848285016109e8565b91505092915050565b600060208284031215610b6a57600080fd5b6000610b7884828501610a12565b91505092915050565b610b8a81610f3a565b82525050565b610b9981610f4c565b82525050565b610ba881610f94565b82525050565b6000610bb982610e6e565b610bc38185610e79565b9350610bd3818560208601610fb8565b610bdc816110c3565b840191505092915050565b6000610bf4602783610e79565b9150610bff826110d4565b604082019050919050565b6000610c17601283610e79565b9150610c2282611123565b602082019050919050565b6000610c3a601783610e79565b9150610c458261114c565b602082019050919050565b6000610c5d600f83610e79565b9150610c6882611175565b602082019050919050565b6000610c80601883610e79565b9150610c8b8261119e565b602082019050919050565b610c9f81610f8a565b82525050565b6000602082019050610cba6000830184610b81565b92915050565b6000606082019050610cd56000830186610b81565b610ce26020830185610b81565b610cef6040830184610c96565b949350505050565b6000602082019050610d0c6000830184610b9f565b92915050565b60006020820190508181036000830152610d2c8184610bae565b905092915050565b60006020820190508181036000830152610d4d81610be7565b9050919050565b60006020820190508181036000830152610d6d81610c0a565b9050919050565b60006020820190508181036000830152610d8d81610c2d565b9050919050565b60006020820190508181036000830152610dad81610c50565b9050919050565b60006020820190508181036000830152610dcd81610c73565b9050919050565b6000602082019050610de96000830184610c96565b92915050565b6000604082019050610e046000830185610c96565b610e116020830184610b90565b9392505050565b6000610e22610e33565b9050610e2e8282610feb565b919050565b6000604051905090565b600067ffffffffffffffff821115610e5857610e57611094565b5b610e61826110c3565b9050602081019050919050565b600081519050919050565b600082825260208201905092915050565b6000610e9582610f8a565b9150610ea083610f8a565b9250827fffffffffffffffffffffffffffffffffffffffffffffffffffffffffffffffff03821115610ed557610ed4611065565b5b828201905092915050565b6000610eeb82610f8a565b9150610ef683610f8a565b9250817fffffffffffffffffffffffffffffffffffffffffffffffffffffffffffffffff0483118215151615610f2f57610f2e611065565b5b828202905092915050565b6000610f4582610f6a565b9050919050565b60008115159050919050565b6000610f6382610f3a565b9050919050565b600073ffffffffffffffffffffffffffffffffffffffff82169050919050565b6000819050919050565b6000610f9f82610fa6565b9050919050565b6000610fb182610f6a565b9050919050565b60005b83811015610fd6578082015181840152602081019050610fbb565b83811115610fe5576000848401525b50505050565b610ff4826110c3565b810181811067ffffffffffffffff8211171561101357611012611094565b5b80604052505050565b600061102782610f8a565b91507fffffffffffffffffffffffffffffffffffffffffffffffffffffffffffffffff82141561105a57611059611065565b5b600182019050919050565b7f4e487b7100000000000000000000000000000000000000000000000000000000600052601160045260246000fd5b7f4e487b7100000000000000000000000000000000000000000000000000000000600052604160045260246000fd5b6000601f19601f8301169050919050565b7f556e61626c6520746f207472616e7366657220746f6b656e20746f207468652060008201527f6163636f756e7400000000000000000000000000000000000000000000000000602082015250565b7f496e73756666696369656e742066756e64730000000000000000000000000000600082015250565b7f496e76616c6964207472616e7366657220616d6f756e74000000000000000000600082015250565b7f496e76616c696420416464726573730000000000000000000000000000000000600082015250565b7f496e76616c696420696e70757420706172616d65746572730000000000000000600082015250565b6111d081610f3a565b81146111db57600080fd5b50565b6111e781610f4c565b81146111f257600080fd5b50565b6111fe81610f58565b811461120957600080fd5b50565b61121581610f8a565b811461122057600080fd5b5056fea2646970667358221220857a2d2f96d61325e3e865d256fdbec057651e39a33d28492b8317f8626dd9bb64736f6c63430008040033",
  "linkReferences": {},
  "deployedLinkReferences": {}
}